:100000000C9443000C94FF070C94FF070C94FF071B
:100010000C94FF070C94AC070C94FF070C94270773
:100020000C94FF070C94FF070C94FF070C94FF0738
:100030000C94FF070C94FF070C94FF070C94FF0728
:100040000C94FF070C94FF070C94FF070C94FF0718
:100050000C94FF070C94FF070C94FF070C94FF0708
:100060000C94FF070C94FF070100011080011001A0
:10007000380010020138015C80015C017400102A14
:1000800001740176800011241FBECFEFD4E0DEBFE3
:10009000CDBFE8E6F0E040E017C0B591A5913591FD
:1000A0002591059107FD0CC095918591EF01F92FE0
:1000B000E82F05900D92A217B307D9F7FE0104C0EF
:1000C0001D92A217B307E1F7E538F40731F70E9454
:0A00D000CC040C946B00F894FFCFF1
:1000DA001F0000001C0000001F0000001E0000009E
:1000EA001F0000001E0000001F0000001F0000008B
:1000FA001E0000001F0000001E0000001F0000007C
:10010A003F000000240000005D00000075000000B0
:10011A0066000000730000007B000000250000005C
:0C012A007F0000007700000000000000D3
:0C0136000100000001000000BC070000F8
:0C0142001F0000000C000000EE07000091
:10014E002F923F924F925F926F927F928F929F92D9
:10015E00AF92BF92CF92DF92EF92FF920F931F93C7
:10016E00CF93DF93CDB7DEB760970FB6F894DEBFAF
:10017E000FBECDBF8090640190906501A090660186
:10018E00B090670189869A86AB86BC860091600125
:10019E0010916101209162013091630140915C01E7
:1001AE0050915D0160915E0170915F0149835A83A8
:1001BE006B837C838090700190907101A09072018E
:1001CE00B09073018D869E86AF86B88A49855A8512
:1001DE006B857C8584169506A606B706E0F5D901D3
:1001EE00C8010197A109B109880F991F880F991F9E
:1001FE00092E000CAA0B86529F4FAF4FFC015A2FAF
:10020E000E94CE076B017C0189849A84AB84BC84E6
:10021E00C818D908EA08FB0889819A81AB81BC818C
:10022E0083709927AA27BB27892B8A2B8B2B51F4F6
:10023E00033011052105310528F44FEFC41AD40AF5
:10024E00E40AF40A0F5F1F4F2F4F3F4F19861A868D
:10025E001B861C8603C0C12CD12C76012090680110
:10026E003090690140906A0150906B0189809A80AC
:10027E00AB80BC8082149304A404B50408F0ADC016
:10028E000D3011052105310509F446C0D901C8010B
:10029E000197A109B109880F991F880F991F092E7F
:1002AE00000CAA0BAC016A2F46525F4F6F4F3A01FA
:1002BE00862E49815A816B817C8143705527662732
:1002CE0077274D835E836F837887F301582D0E94C5
:1002DE00CE07C60ED71EE81EF91E4D815E816F81B8
:1002EE007885452B462B472B51F4033011052105FC
:1002FE00310528F45FEFC51AD50AE50AF50A0F5F36
:10030E001F4F2F4F3F4F64E0660E711C811C0D3046
:10031E00110521053105C9F609811A812B813C8110
:10032E000F5F1F4F2F4F3F4F021513052405350545
:10033E0008F04BC049815A816B817C814E5F5F4FC3
:10034E006F4F7F4F02C0AC01BD01DB01CA010197A7
:10035E00A109B10983709927AA27BB27892B8A2B5C
:10036E008B2B39F48EE6C80E81E0D81EE11CF11CF1
:10037E0006C09DE6C90E91E0D91EE11CF11CDB0101
:10038E00CA010196A11DB11D4215530564057505DF
:10039E00D0F2D201C1010197A109B109080F191FAD
:1003AE002A1F3B1F4801590149815A816B817C816B
:1003BE00841A950AA60AB70A89829A82AB82BC82EF
:1003CE0001E010E020E030E008C009831A832B839F
:1003DE003C8301E010E020E030E08D859E85AF8506
:1003EE00B88989849A84AB84BC8488199909AA092E
:1003FE00BB09C80ED91EEA1EFB1E20906C01309060
:10040E006D0140906E0150906F0102151305240589
:10041E00350508F046C0D901C8010197A109B109F7
:10042E00880F991F880F991F092E000CAA0BAC017B
:10043E006A2F46525F4F6F4F3A01862E49815A817D
:10044E006B817C81437055276627772749835A83B2
:10045E006B837C83F301582D0E94CE07C60ED71EE8
:10046E00E81EF91E49815A816B817C81452B462BF2
:10047E00472B51F4033011052105310528F45FEFA8
:10048E00C51AD50AE50AF50A0F5F1F4F2F4F3F4FCA
:10049E0064E0660E711C811C0215130524053505DA
:1004AE00C9F6C0924C01D0924D01E0924E01F092ED
:1004BE004F01C701B6010E94310460960FB6F89441
:1004CE00DEBF0FBECDBFDF91CF911F910F91FF9079
:1004DE00EF90DF90CF90BF90AF909F908F907F90D6
:0C04EE006F905F904F903F902F9008950A
:1004FA008F929F92AF92BF92CF92DF92EF92FF922A
:10050A000F931F93009168011091690120916A016C
:10051A0030916B01D901C80183709927AA27BB279B
:10052A00892B8A2B8B2B09F08EC0C0906C01D0903E
:10053A006D01E0906E01F0906F0182E0C816D1045F
:10054A00E104F10431F58091700190917101A0915B
:10055A007201B09173014E97A105B10508F4D3C099
:10056A0081E090E0A0E0B0E0809370019093710187
:10057A00A0937201B093730183E090E0A0E0B0E031
:10058A0080936C0190936D01A0936E01B0936F01FB
:10059A00BAC0D701C6010197A109B109880F991FED
:1005AA00880F991F092E000CAA0B86529F4FAF4F36
:1005BA00FC015A2F0E94CE07809070019090710121
:1005CA00A0907201B0907301681579058A059B05A0
:1005DA0008F099C081E090E0A0E0B0E0809370015B
:1005EA0090937101A0937201B09373018FEFC81AAF
:1005FA00D80AE80AF80A8DE0C816D104E104F10421
:10060A0048F4C0926C01D0926D01E0926E01F092B2
:10061A006F0179C081E090E0A0E0B0E080936C01C6
:10062A0090936D01A0936E01B0936F010F5F1F4FFE
:10063A002F4F3F4F009368011093690120936A017D
:10064A0030936B0160C0C0906C01D0906D01E09056
:10065A006E01F0906F01D701C6010197A109B10996
:10066A00880F991F880F991F092E000CAA0B865212
:10067A009F4FAF4FFC015A2F0E94CE078090700106
:10068A0090907101A0907201B0907301681579057C
:10069A008A059B05C0F581E090E0A0E0B0E0809378
:1006AA00700190937101A0937201B09373018FEF5F
:1006BA00C81AD80AE80AF80A8DE0C816D104E10473
:1006CA00F10448F4C0926C01D0926D01E0926E017F
:1006DA00F0926F0118C081E090E0A0E0B0E0809352
:1006EA006C0190936D01A0936E01B0936F010F5F3F
:1006FA001F4F2F4F3F4F00936801109369012093BA
:10070A006A0130936B011F910F91FF90EF90DF9078
:0C071A00CF90BF90AF909F908F900895FB
:100726008F929F92AF92BF92CF92DF92EF920F93EA
:100736001F93CF93DF93C82ED12C9601220F331F20
:10074600220F331FC901032E000CAA0B8A5C9E4F91
:10075600AF4FFC015A2F0E94CE074B015C01F901F5
:10076600EC5FFE4F60837183828393830E94310422
:10077600C601880F991F880F991FEC01CC5FDE4FC9
:10078600092E000CAA0B9C014A2F2E5B3E4F4F4FA1
:100796006901E42E109200011092010110920201EB
:1007A600109203014D9B4BC0809100019091010175
:1007B600A0910201B09103010196A11DB11D809384
:1007C600000190930101A0930201B09303010E94DE
:1007D600C8054D99E9CF8091000190910101A09142
:1007E6000201B091030184369105A105B10550F5CA
:1007F6000397A109B10981369105A105B105F8F460
:10080600088119812A813B810F5F1F4F2F4F3F4F70
:10081600088319832A833B83F6015E2D0E94CE0747
:10082600601771078207930720F488829982AA824B
:10083600BB82688179818A819B810E9431040E94F2
:10084600C805A8CFDF91CF911F910F91EF90DF9050
:0C085600CF90BF90AF909F908F900895BE
:100862008F929F92AF92BF92CF92DF92EF92FF92BE
:100872000F931F93CF93DF93CDB7DEB764970FB675
:10088200F894DEBF0FBECDBFAB01BC0184E1E0E155
:10089200F1E0DE01119601900D928A95E1F79E0139
:1008A2002F5F3F4F0F2EFCE4AF2EF1E0BF2EF02D55
:1008B2000F2EF8E38F2EF1E09F2EF02D1AC0C12CDF
:1008C200D12C7601481B590B6A0B7B0B1FEFC11A07
:1008D200D10AE10AF10A481759076A077B0790F71C
:1008E200F501F292E292D292C2925F01E815F90505
:1008F20079F0F90181919191A191B1919F014817EC
:1009020059076A077B07D8F6C12CD12C7601E8CFAC
:100912008091480190914901A0914A01B0914B0107
:10092200892B8A2B8B2B89F023C0B291A2919291B1
:100932008291892B8A2B8B2BD9F44083518362833A
:100942007383E815F90589F713C08AE090E0A0E007
:10095200B0E08093480190934901A0934A01B0937B
:100962004B01E8E4F1E04AE050E060E070E0DDCF06
:1009720064960FB6F894DEBF0FBECDBFDF91CF9164
:100982001F910F91FF90EF90DF90CF90BF90AF90AB
:060992009F908F90089574
:100998000E94FA070E94F3078091700190917101FB
:1009A800A0917201B0917301892B8A2B8B2BC1F016
:1009B80080916C0190916D01A0916E01B0916F01D1
:1009C800892B8A2B8B2B61F08091680190916901AA
:1009D800A0916A01B0916B01892B8A2B8B2B11F4A2
:1009E8000E9459050E942806809164019091650132
:1009F800A0916601B09167018F3F9105A105B105EE
:100A0800D1F08091600190916101A0916201B09153
:100A180063018F3F9105A105B10569F080915C01E3
:100A280090915D01A0915E01B0915F018F3F9105AA
:100A3800A105B10521F40E94F7060E9472070E94E1
:100A4800A70060914C0170914D0180914E019091E9
:100A58004F010E94310478940E9495078BEF809390
:100A6800B300E0E7F0E080818260808383B786602E
:100A780083BF8CE291E0909375018093740104C068
:100A88000E94C8050E947D068091740190917501AD
:100A9800892BB1F783B7816083BF83B7816083BF38
:0A0AA800889583B78E7F83BFEFCFE0
:100AB20068E37BE581E090E00E943104109200013E
:100AC2001092010110920201109203014D9B2CC061
:100AD2008091000190910101A0910201B091030166
:100AE2000196A11DB11D8093000190930101A09375
:100AF2000201B09303010E94C8054D99E9CF80918C
:100B0200000190910101A0910201B091030184368C
:100B12009105A105B10558F40397A109B1098136E0
:100B22009105A105B10518F00E94C805C7CF80E064
:100B32000E94930381E00E94930382E00E94930348
:100B4200E4E0F1E080819181A281B3818093700120
:100B520090937101A0937201B09373018481958186
:100B6200A681B78180936C0190936D01A0936E0171
:100B7200B0936F0180859185A285B38580936801CA
:0E0B820090936901A0936A01B0936B010895EE
:100B9000BF92CF92DF92EF92FF920F931F93CF936A
:100BA000DF93CDB7DEB764970FB6F894DEBF0FBE04
:100BB000CDBF84E1E4E2F1E0DE01119601900D92F7
:100BC0008A95E1F70F2EF8E3EF2EF1E0FF2EF02DDE
:100BD0008E010F5F1F4F0F2EFCE4CF2EF1E0DF2EB2
:100BE000F02DBB24BA94F70181919191A191B1911B
:100BF0007F01880F991F880F991F092E000CAA0BDF
:100C0000865F9E4FAF4FFC015A2F0E94CE070E9475
:100C10004D07F80180810C5F1F4F85B98FEC97E07D
:100C20000197F1F700C00000B5B8EC14FD04D9F647
:100C300064960FB6F894DEBF0FBECDBFDF91CF91A3
:100C40001F910F91FF90EF90DF90CF90BF9008958C
:100C500080E090E00E94EC0790E0A0E0B0E080939C
:100C6000640190936501A0936601B093670181E0F0
:100C700090E00E94EC0790E0A0E0B0E0809360017B
:100C800090936101A0936201B093630182E090E0D0
:100C90000E94EC0790E0A0E0B0E0809358019093B0
:100CA0005901A0935A01B0935B0183E090E00E9448
:100CB000EC0790E0A0E0B0E08093540190935501E0
:100CC000A0935601B0935701BA2FA92F982F8827C8
:100CD000409158015091590160915A0170915B0106
:100CE000840F951FA61FB71F80935C0190935D0131
:0A0CF000A0935E01B0935F01089528
:100CFA001092000110920101109202011092030158
:100D0A0060914C0170914D0180914E0190914F017B
:100D1A000E9431044D9B17C08091000190910101FE
:100D2A00A0910201B09103010196A11DB11D80930A
:100D3A00000190930101A0930201B09303010E9464
:100D4A00C8054D99E9CF8091000190910101A091C8
:100D5A000201B091030184369105A105B10540F065
:100D6A00F8940E94F7060E9472070E94A7007894DE
:020D7A000895DA
:100D7C008091500190915101A0915201B091530179
:100D8C000196A11DB11D8093500190935101A09328
:100D9C005201B09353018134994FA842B10500F12F
:100DAC0080914C0190914D01A0914E01B0914F0159
:100DBC00BC01CD016F5F7F4F8F4F9F4F60934C01F4
:100DCC0070934D0180934E0190934F0110925001FE
:100DDC001092510110925201109253010E94310451
:020DEC00089568
:100DEE0080E00E94930381E00E94930382E00E94C0
:100DFE009303E4E0F1E080819181A281B38180933D
:100E0E00640190936501A0936601B093670184819C
:100E1E009581A681B7818093600190936101A09323
:100E2E006201B093630180859185A285B38580931D
:100E3E005C0190935D01A0935E01B0935F010895F4
:100E4E001F920F920FB60F9211242F933F934F9331
:100E5E005F936F937F938F939F93AF93BF93EF9314
:100E6E00FF930E94BE060E947D02FF91EF91BF91FB
:100E7E00AF919F918F917F916F915F914F913F9124
:0C0E8E002F910F900FBE0F901F90189531
:100E9A00CF92DF92EF92FF92CF93DF936B017C01A7
:100EAA00C0E0D0E0D701C6010C2E04C0B695A795C4
:100EBA00979587950A94D2F781708BB90E94C007DB
:100ECA002196C830D10571F70E94DA07DF91CF91D8
:0A0EDA00FF90EF90DF90CF90089595
:100EE4006091640180E090E00E94E40760916001F9
:100EF40081E090E00E94E40760915C0182E090E070
:100F04000E94E40780915C0190915D01A0915E01D3
:100F1400B0915F01692F7A2F8B2F992783E090E09E
:060F24000E94E40708959D
:100F2A00E0EBF0E080818E7F808380818260808325
:100F3A00E1EBF0E08081877F80838081816080831C
:0E0F4A0080818260808380818460808308952E
:100F58001F920F920FB60F9211248F939F9384EFD5
:100F680091E090937501809374019F918F910F90F8
:080F78000FBE0F901F901895A9
:100F80005A9A85E88A95F1F700009BB184E0892799
:0C0F90008BB985E88A95F1F70000089500
:100F9C0057FD05C065917591859195910895619165
:080FAC0071918191919108956A
:100FB400599A85E88A95F1F700009BB182E0892768
:040FC4008BB9089548
:100FC800F999FECF92BD81BD60BDFA9AF99A08954C
:0E0FD800F999FECF92BD81BDF89A80B50895BB
:0E0FE60084E08093680080E280936D0008959F
:0A0FF40087E08AB98FE384B90895FD
:040FFE000C9400004F
:1010020010270000E8030000640000000A0000004E
:1010120001000000FE000000FD000000FB000000D7
:08102200F7000000EF000000E0
:04102A00E4070000D7
:04102E0001000000BD
:0410320001000000B9
:04103600BC070000F3
:04103A0001000000B1
:04103E0002000000AC
:00000001FF
